:020000040800F2
:10000000A00D002001010008CD4500085D3E00085C
:10001000C9450008B5080008555300080000000055
:10002000000000000000000000000000814C0008FB
:100030008D0B000800000000A94A0008D94C0008F8
:100040001B0100081B0100081B0100081B01000820
:100050001B0100081B0100081B0100081B01000810
:10006000910B00089D0B0008A90B0008B9080008B7
:100070001B0100081B0100081B0100081B010008F0
:100080001B0100081B0100081B0100081B010008E0
:100090001B0100081B0100081B010008B50B00082C
:1000A0001B0100081B0100081B0100081B010008C0
:1000B0001B0100081B0100081B0100081B010008B0
:1000C0001B0100081B0100081B0100081B010008A0
:1000D0001B0100081B0100081B0100081B01000890
:1000E0001B0100081B0100081B010008DFF80CD0F1
:1000F00000F03CFA00480047D16A0008A00D00203B
:100100000648804706480047FEE7FEE7FEE7FEE7B1
:10011000FEE7FEE7FEE7FEE7FEE7FEE7714D0008BB
:10012000ED00000840EA01039B0703D009E008C97D
:10013000121F08C0042AFAD203E011F8013B00F8AC
:10014000013B521EF9D27047D2B201E000F8012BF8
:10015000491EFBD270470022F6E710B513460A4647
:1001600004461946FFF7F0FF204610BD30B50B4698
:10017000014600202022012409E021FA02F59D42D7
:1001800005D303FA02F5491B04FA02F52844151EAB
:10019000A2F10102F1DC30BD2DE9F05F054600203F
:1001A00092469B4688460646814640241BE02846E8
:1001B00041464746224600F000FA53465A46C01AC6
:1001C000914110D311461846224600F0E7F92D1A46
:1001D00067EB01084F4622460120002100F0DEF9BE
:1001E00017EB00094E41201EA4F10104DFDC484654
:1001F00031462A464346BDE8F09F2DE9FE4F804632
:1002000081EA0300C00F0C46009021F0004123F06A
:100210000045B8EB0200A94105D240462146904670
:100220001C460B46024623F00040104347D0270DE2
:10023000C7F30A00C3F30A510290401A0190402804
:100240006BDAC3F3130040F4801B0098924620B190
:100250000023D2EB030A63EB0B0B01985946C0F164
:100260004002504600F09AF906460D46504659465F
:10027000019A00F0B2F910EB08006141002487EA0E
:10028000115284EAE7731A4340D0009A62B3019A8C
:10029000012A4FEA075215DC001B61EB02014FF007
:1002A000004202EA0752CDE90042001C41F58011EC
:1002B00032462B4600F0B2F903B0BDE8F08F40465D
:1002C0002146F9E7001B61EB0201001C41F5801398
:1002D00000185B412018A2F5001747EB030140EA24
:1002E000D570B6196D4111E06D084FEA360645EA42
:1002F000C0754FEA0752001B61EB0201001C41F57B
:10030000801149084FEA30000019514132462B460E
:1003100003B0BDE8F04F00F072B900980122400030
:100320000023D0EB020263EBE073009821464FEA12
:10033000E074B8EB000061EB0401E9E783F00043EF
:100340005BE781F0004158E72DE9FE4F81EA0304A5
:1003500004F0004421F0004100944FF0000B23F022
:10036000004350EA01045ED052EA03045BD0C3F3B9
:100370000A54C1F30A552C44A4F2F3340194A0FBAF
:100380000254C1F3130141F48011C3F3130343F486
:10039000801301FB024400FB034E840A970A44EADF
:1003A000815447EA8357A4FB076802958D0A05FB31
:1003B00007854FEA932C04FB0C542705029D4FEA56
:1003C000065847EA1637B5EB08056EEB070C870EA3
:1003D000920E47EA811742EA8312A7FB0201B6EBAD
:1003E0000B0164EB00042B0D43EA0C335E1844EB65
:1003F0001C50DA465146E7FB0201C5F313044FEAED
:100400000B3343EA14534FEA0432019C43EA0603D8
:10041000A4F10C040294009CCDE900B400F0FEF8B5
:1004200003B0BDE8F08F00200146F9E72DE9F04D5B
:1004300081EA030404F0004B21F0004514464FF01C
:10044000000A23F0004150EA050220D054EA0102DC
:100450001DD0C5F30A570246C5F31303C1F31300B9
:10046000C1F30A5640F4801543F48013A7EB060845
:10047000101BD64608F2FD3873EB050002D308F1D5
:10048000010801E092185B41B8F1000F03DA002087
:100490000146BDE8F08D00204FF4801106468446E9
:1004A0000EE0171B73EB050705D3121B63EB050367
:1004B00006434CEA010C49084FEA300092185B41B0
:1004C00050EA0107EDD152EA030012D082EA04009B
:1004D00083EA0501084305D0101BAB4106D2012277
:1004E000002306E000224FF0004302E06FF001021B
:1004F00053101AEB06004CEB085110EB0A0041EBCD
:100500000B01BDE8F04D00F07AB8C1F30A52C1F317
:10051000130140F2FF3341F480119A4202DA0020C5
:100520000146704740F233439A42A2F2334202DC62
:10053000524200F042B800F031B8000030B5041E5D
:1005400071F1000404DB4FF00044404264EB010110
:10055000141E73F1000405DB1C464FF000435242A9
:1005600063EB0403994208BF904230BD1CB50948B3
:100570000090094801900546009C06E0E06840F0C4
:10058000010394E8070098471034AC42F6D3FFF714
:10059000B1FD00002080000840800008202A04DB14
:1005A000203A00FA02F1002070479140C2F1200386
:1005B00020FA03F3194390407047202A04DB203AC5
:1005C00021FA02F00021704721FA02F3D040C2F173
:1005D00020029140084319467047202A06DBCB17BA
:1005E000203A41FA02F043EAE07306E041FA02F3EE
:1005F000D040C2F12002914008431946704710B51F
:10060000141E73F1000408DA401C41F10001921835
:100610005B411A4301D120F0010010BD2DE9F04DDE
:1006200092469B4611B1B1FA81F202E0B0FA80F233
:1006300020329046FFF7B2FF04460F4640EA0A0018
:1006400041EA0B0153465A46084313D0114653EA78
:10065000010019D0C8F140025046FFF7AEFF054631
:100660000E46504659464246FFF798FF084305D0CC
:10067000012004E020463946BDE8F08D0020054306
:1006800046EAE0762C4337430A986305E40AA0EB78
:1006900008000022FD0A44EA47540A3002D500202F
:1006A0000146E9E7010510196941DDE9084500192E
:1006B0006941BDE8F04DA2E780B584B0029000200A
:1006C0000190029800688068C00770B3FFE7029845
:1006D0000168886820F00100886001F03DFE01900B
:1006E000FFE7029800688068C007E8B1FFE701F003
:1006F00033FE0199401A032815D3FFE702980068DA
:100700008068C00770B1FFE70299886A40F0100066
:1007100088620299C86A40F00100C86201208DF821
:100720000F0006E0FFE7DCE7FFE700208DF80F0091
:10073000FFE79DF80F0004B080BD000080B582B0D7
:1007400001900198406A00900098806A10F0500F64
:1007500028D1FFE70099886A40F400708862009809
:100760000068806800F46020B0F5602F16D1FFE7C4
:100770000098007B90B9FFE70099886A20F48070A8
:1007800088620098806AC004002806D4FFE70099B8
:10079000886A40F001008862FFE7FFE7009800F0F8
:1007A000B9FC05E00098006A016B01988847FFE7F3
:1007B00002B080BD80B582B001900198406A00907F
:1007C0000099886A40F0400088620099C86A40F049
:1007D0000400C862009800F0A5FC02B080BD0000D3
:1007E00080B582B001900198406A0090009800F0B6
:1007F00095FC02B080BD000080B584B0029000205E
:1008000001900090029800688068C007002849D1D4
:10081000FFE702980168886840F00100886040F2B4
:100820000400C2F2000000684DF68361C4F21B317F
:10083000A0FB0110800C0090FFE7009820B1FFE7BB
:10084000009801380090F8E701F086FD0190FFE77D
:10085000029800688068C00718BBFFE701F07CFDC4
:100860000199401A03281BD3FFE7029800688068AB
:10087000C007A0B9FFE70299886A40F010008862BB
:100880000299C86A40F00100C862FFE7029900209F
:1008900081F82400FFE701208DF80F0006E0FFE754
:1008A000D6E7FFE700208DF80F00FFE79DF80F0067
:1008B00004B080BDFFE7FEE780B540F2E820C2F259
:1008C000000000F0D1FE80BD84B00390029101923F
:1008D00000930398C16B026C01209040486000981F
:1008E00003990968486003984068102809D1FFE718
:1008F0000198039909688860029803990968C8609B
:1009000008E00298039909688860019803990968CA
:10091000C860FFE704B0704780B586B0059040F22C
:100920000F01C2F200010120087005980078FF282D
:1009300055D1FFE740F20D00C2F200000078012817
:100940004DD1FFE740F20D01C2F200010020087016
:1009500040F21072C2F200020121117040F2000157
:10096000C2F20001C978517040F20B01C2F20001DD
:100970000978917040F20C01C2F200010978D1703F
:100980008DF81300FFE79DF8130007281EDCFFE732
:100990009DF8133040F21800C2F2000000EB430152
:1009A0004A7840F21071C2F2000101EB43031A7160
:1009B0009DF8132030F8120001EB42014871FFE767
:1009C0009DF8130001308DF81300DCE740F2107140
:1009D000C2F200010020202205F0B8F9D4E0059809
:1009E000007800283FD1FFE70598407840F20B01DE
:1009F000C2F200010978884235D1FFE70598807876
:100A000040F20C01C2F20001097888422BD1FFE7C5
:100A100040F20E00C2F200000078012823D1FFE767
:100A200040F20E01C2F200010020087040F63011C1
:100A3000C2F200010320087040F20000C2F2000080
:100A4000C078487040F20B00C2F200000078887055
:100A500040F20C00C2F200000078C8700120202291
:100A600005F074F98FE005980078012820D1FFE7A0
:100A7000059840780146039120B1FFE70398FF28CD
:100A80000AD013E040F60000C4F201004FF40071F8
:100A9000012201F049FC0AE040F60000C4F2010026
:100AA0004FF40071002201F03FFC00E0FFE769E035
:100AB00005980078022820D1FFE705984078014684
:100AC000029120B1FFE70298FF280AD013E040F618
:100AD0000000C4F201004FF48061012201F024FC07
:100AE0000AE040F60000C4F201004FF480610022E9
:100AF00001F01AFC00E0FFE743E0059800780328C6
:100B000020D1FFE7059840780146019120B1FFE729
:100B10000198FF280AD013E040F60000C4F201005B
:100B20004FF40061012201F0FFFB0AE040F60000F3
:100B3000C4F201004FF40061002201F0F5FB00E077
:100B4000FFE71DE005980078042809D1FFE7059824
:100B5000407840F2CC31C2F20001096848630EE0EF
:100B600005980078052809D1FFE70598407840F2FC
:100B70005C41C2F2000109680864FFE7FFE7FFE794
:100B8000FFE7FFE7FFE7FFE706B080BD7047000023
:100B900080B5042001F004FA80BD000080B5082073
:100BA00001F0FEF980BD000080B5102001F0F8F9D9
:100BB00080BD000080B5202001F0F2F94FF4807074
:100BC00001F0EEF980BD000081B0EFF3108072B645
:100BD0000090FFE7FEE7000081B0009040F2F04196
:100BE000C2F200010020C86142F21001C4F2020109
:100BF000086840F004000860086840F040000860A1
:100C000001B0704781B0009040F2F041C2F20001A3
:100C10000020C86142F21001C4F20201086840F0ED
:100C200002000860009842F21402C4F2020210604E
:100C3000086840F04000086001B0704782B0019041
:100C4000ADF8021040F2F041C2F200010020C8618C
:100C500042F21001C4F20201086840F0010008608D
:100C6000BDF802000199088002B0704781B00020F1
:100C70000090012040B9FFE742F21C00C4F20200DC
:100C80000068C00748B915E042F20C00C4F2020047
:100C90000068C00600280DD5FFE740F2F041C2F21F
:100CA0000001C86940F00200C861009840F01000DF
:100CB0000090FFE7012040B9FFE742F21C00C4F2B8
:100CC00002000068C00748B915E042F20C00C4F207
:100CD00002000068400700280DD5FFE740F2F04110
:100CE000C2F20001C86940F00100C861009840F0FC
:100CF00004000090FFE7002040B9FFE742F21C002B
:100D0000C4F202000068C00750B91CE042F20C00B7
:100D1000C4F20200006840F20111084213D0FFE75C
:100D200040F2F041C2F20001C86940F00400C8611D
:100D3000FFE742F21C01C4F20201086820F0010042
:100D40000860FFE7FFE7FFE7009840F201118842E3
:100D500009D1FFE742F21C01C4F20201086820F049
:100D60000100086006E0009842F20C01C4F20201A2
:100D70000860FFE7FFE701B07047000080B584B06E
:100D8000029001F0E9FA0190FFE742F20C00C4F290
:100D900002000068C007A8B1FFE70298013080B1E7
:100DA000FFE7029840B1FFE701F0D6FA0199401A37
:100DB0000299884204D9FFE703208DF80F0065E00F
:100DC000FFE7E2E7012040B9FFE742F21C00C4F26E
:100DD00002000068C00748B911E042F20C00C4F2FA
:100DE000020000688006002809D5FFE7FFE742F20D
:100DF0000C01C4F2020120200860FFE7FFE7012098
:100E000040B9FFE742F21C00C4F202000068C007CC
:100E100090BB08E042F20C00C4F202000068C00679
:100E2000002829D4FFE7002040B9FFE742F21C0068
:100E3000C4F202000068C007F0B909E042F20C00F9
:100E4000C4F20200006840F20111084214D1FFE729
:100E5000012040B9FFE742F21C00C4F20200006822
:100E6000C00748B90EE042F20C00C4F2020000686C
:100E70004007002806D5FFE7FFF7F8FE01208DF8B0
:100E80000F0003E000208DF80F00FFE79DF80F0032
:100E900004B080BD81B04FF60040C0F6000000886D
:100EA000ADF80200BDF8020040F20B01C2F20001F1
:100EB00008709DF8030040F20C01C2F200010870B6
:100EC00001B0704780B588B00020029040F20B005E
:100ED000C2F20000007840F20C01C2F20001097871
:100EE00040EA0120ADF8060000F0F0FEFFE742F214
:100EF0000C01C4F2020134200860FFE700200390D7
:100F00004FF60040C0F6000005900120069003A8AF
:100F100002A900F0B5FD8DF81E009DF81E0038B145
:100F2000FFE700F033FE9DF81E008DF81F0012E071
:100F3000BDF8062001204FF60041C0F60001002355
:100F400000F02EFE8DF81E0000F020FE9DF81E0021
:100F50008DF81F00FFE79DF81F0008B080BD00005E
:100F600085B00390029100208DF807000090FFE704
:100F7000039890F82400012804D1FFE702208DF89F
:100F80001300C3E00399012081F82400FFE7FFE785
:100F900002984068062812D8FFE703980068406B63
:100FA000029A1168526802EB8202053A1F239340AD
:100FB00098439140084303990968486329E00298DF
:100FC00040680C2812D8FFE703980068006B029A6B
:100FD0001168526802EB8202233A1F239340984320
:100FE0009140084303990968086311E00398006879
:100FF000C06A029A1168526802EB8202413A1F23CA
:10100000934098439140084303990968C862FFE7F9
:10101000FFE7029800680A2812D3FFE703980068E8
:10102000C06802990A68896802EB42021E3A0723E7
:10103000934098439140084303990968C86010E0C1
:1010400003980068006902990A68896802EB420205
:101050000723934098439140084303990968086126
:10106000FFE702980068102805D0FFE702980068A3
:10107000112840D1FFE70398006842F20041C4F212
:10108000010188422DD1FFE70398006880680002C3
:10109000002825D4FFE703980168886840F4000021
:1010A000886002980068102819D1FFE740F2040018
:1010B000C2F2000000684DF68361C4F21B31A0FB50
:1010C0000110800C00EB800040000090FFE70098CA
:1010D00020B1FFE7009801380090F8E7FFE7FFE74D
:1010E00008E00399886A40F02000886201208DF8AA
:1010F0000700FFE7FFE7FFE70399002081F82400DE
:10110000FFE79DF807008DF81300FFE79DF8130037
:1011100005B0704781B0009001B0704781B0009079
:1011200001B0704781B0009001B0704780B588B0C1
:10113000069000208DF81700049003900290069806
:1011400020B9FFE701208DF81F00F4E006988068C1
:1011500030B1FFE70698007D08B1FFE7FFE7FFE742
:101160000698806A50B9FFE706990020C862069980
:1011700081F82400069800F0E3F8FFE70698FFF7EF
:101180009BFA8DF817000698806AC006002800F1C7
:10119000C480FFE79DF81700002840F0BE80FFE7FD
:1011A0000698806A40F0020020F488500699886210
:1011B00006994868CA691043097B40EA41010398CF
:1011C00008430390069881680120B1F5807F019063
:1011D00008D0FFE7069880680138B0FA80F040092F
:1011E0000190FFE701990498CA0740F48071002A32
:1011F00018BF084604900698007D01281ED1FFE71D
:101200000698007B70B9FFE7069881694EF20000EE
:10121000CFF6FF7000EB41300499084340F40060C2
:1012200004900AE00699886A40F0200088620699D6
:10123000C86A40F00100C862FFE7FFE7069800684F
:10124000406820F469400499084306990968486099
:101250000698006880684FF2FD71CFF6E171084092
:1012600003990843069909688860069881680120F7
:10127000B1F5807F009008D0FFE7069880680138BC
:10128000B0FA80F040090090FFE7009800F00100FC
:10129000002818BF4FF48070B0F5807F09D1FFE7B8
:1012A000069801690020CFF6F07000EB0150029023
:1012B000FFE706980068C06A20F4700002990843AE
:1012C00006990968C86206980068806840F6FE6161
:1012D000CFF61F710840039988420CD1FFE70699A9
:1012E0000020C8620698806A40F0010020F00200E9
:1012F0000699886210E00698806A40F0100020F09D
:101300000200069988620699C86A40F00100C86226
:1013100001208DF81700FFE708E00699886A40F081
:101320001000886201208DF81700FFE79DF8170074
:101330008DF81F00FFE79DF81F0008B080BD00007A
:1013400080B58CB00B9000200A900990089007900F
:101350000B98006842F20041C4F2010188426DD14D
:10136000FFE7FFE741F21800C4F20200016841F410
:1013700000710160006800F4007006900698FFE7B5
:10138000FFE741F21800C4F20200016841F00401D5
:101390000160006800F0040005900598FFE7FFE792
:1013A00041F21800C4F20200016841F00801016036
:1013B000006800F0080004900498FFE7F32007900D
:1013C00003200190089040F60000C4F2010007A934
:1013D000029100F001FE019802990790089040F6F2
:1013E0000040C4F2010000F0F7FD40F2E820C2F234
:1013F000000003900821C4F2020101600021416055
:1014000081608022C2604FF4807202614FF480627A
:10141000426120228261C16100F06AFA18B1FFE7DF
:10142000FFF7D2FBFFE7FFE70B9840F2E821C2F29B
:10143000000101620B984862FFE7FFE70CB080BD36
:1014400080B586B004900391029200208DF80700C9
:101450000498006842F20041C4F20101884209D0B8
:10146000FFE70498006842F60001C4F201018842D7
:1014700009D1FFE742F20440C4F20100006800F421
:101480007020009002E000200090FFE70098002804
:1014900040F0DC80FFE7FFE7049890F82400012883
:1014A00004D1FFE702208DF81700D8E0049901204D
:1014B00081F82400FFE7FFE70498FFF79DF98DF816
:1014C00007009DF80700002840F0B880FFE7049867
:1014D000806A40F4807040F6016188430499886214
:1014E0000498006842F60001C4F20101884209D163
:1014F000FFE742F20440C4F20100006810F4702FCC
:1015000003D018E00020B0B9FFE70499886A20F4FE
:10151000801088620498006840684005002809D55A
:10152000FFE70498806A40F4805020F4005004994A
:101530008862FFE72CE00499886A40F48010886292
:101540000498006842F20041C4F20101884209D0C7
:10155000FFE70498006842F60001C4F201018842E6
:1015600009D1FFE742F20440C4F2010000684005DF
:10157000002803D40BE0012048B9FFE70498806AF3
:1015800040F4805020F4005004998862FFE7FFE7A0
:101590000498806AC004002806D5FFE70499C86A49
:1015A00020F00600C86203E004990020C862FFE74B
:1015B000FFE70499002081F82400FFE70498016AFE
:1015C00040F23D70C0F6000088620498016A40F263
:1015D000E170C0F60000C8620498016A40F2B5707C
:1015E000C0F600000863049801686FF0020008600C
:1015F00004980168886840F48070886004980168E5
:10160000006A4C31039A029B00F0CAF90498006802
:10161000806800F46020B0F5602F07D1FFE70498E0
:101620000168886840F4A000886006E004980168BA
:10163000886840F480108860FFE706E0FFE70499BF
:10164000002081F82400FFE7FFE703E001208DF888
:101650000700FFE79DF807008DF81700FFE79DF8EA
:10166000170006B080BD000080B58EB00D900D98BB
:10167000C06B00680C900D98006800680B900C9887
:101680000D99096CC8404007002875D5FFE79DF803
:101690002C00400700286FD5FFE70D980068006810
:1016A0008006002807D4FFE70D980168086820F03D
:1016B00004000860FFE70D9800680821C4F20201E9
:1016C000884203D1FFE704200A9047E00D980068A4
:1016D0001C21C4F20201884203D1FFE74020099097
:1016E00039E00D9800683021C4F20201884204D12B
:1016F000FFE74FF4806008902AE00D9800684421CD
:10170000C4F20201884204D1FFE74FF48040079001
:101710001BE00D9800685821C4F20201884204D1F0
:10172000FFE74FF4802006900CE00D9801686C22D2
:10173000C4F202024FF08060914208BF4FF4800073
:101740000690FFE706980790FFE707980890FFE7E5
:1017500008980990FFE709980A90FFE70A98042182
:10176000C4F2020108600D98C06A20B1FFE70D982D
:10177000C16A8847FFE7B8E00C980D99096CC8402A
:101780008007002840F18080FFE79DF82C0080074B
:10179000002879D5FFE70D980068006880060028CA
:1017A0000BD4FFE70D980168086820F00A00086074
:1017B0000D99012081F82100FFE70D9800680821AC
:1017C000C4F20201884203D1FFE70220059047E0FE
:1017D0000D9800681C21C4F20201884203D1FFE782
:1017E0002020049039E00D9800683021C4F20201F5
:1017F000884204D1FFE74FF4007003902AE00D986F
:1018000000684421C4F20201884204D1FFE74FF48A
:10181000005002901BE00D9800685821C4F20201AC
:10182000884204D1FFE74FF4003001900CE00D989E
:1018300001686C22C4F202024FF00070914208BFAE
:101840004FF400100190FFE701980290FFE7029823
:101850000390FFE703980490FFE704980590FFE7E3
:1018600005980421C4F202010860FFE70D990020E9
:1018700081F82000FFE70D98806A20B1FFE70D98FE
:10188000816A8847FFE72FE00C980D99096CC840E2
:101890000007002827D5FFE79DF82C000007002847
:1018A00021D5FFE70D980168086820F00E00086058
:1018B0000D98C26B016C012000FA01F151600D9985
:1018C00088630D9981F82100FFE70D99002081F8C8
:1018D0002000FFE70D98006B20B1FFE70D98016B2A
:1018E0008847FFE7FFE7FFE7FFE70EB080BD000096
:1018F00083B0019000200090019820B9FFE70120FB
:101900008DF80B0047E0019908684FF6F872CBF6A6
:10191000FD7210444CF6CD42CCF6CC42A0FB020244
:101920006FF0030000EA9200086401990020C4F2FD
:101930000200C8630199022081F821000198006823
:1019400000680090009843F6F07188430090019978
:101950004868D1F808C0CB680A6940EA0C0018430F
:1019600010434A6910438A691043C96901430098CA
:1019700008430090009801990968086001990020C7
:101980008863019A012182F82110019981F82000D1
:101990008DF80B00FFE79DF80B0003B070470000C7
:1019A00080B586B0049003910292019300208DF8D7
:1019B0000300FFE7049890F82000012804D1FFE716
:1019C00002208DF817004CE00499012081F82000D6
:1019D000FFE7FFE7049890F82100012832D1FFE7E4
:1019E0000499022081F8210004990020886304985A
:1019F0000168086820F00100086004980399029AC1
:101A0000019BFEF761FF0498C06A38B1FFE70498B4
:101A10000168086840F00E0008600CE00498016856
:101A2000086820F00400086004980168086840F025
:101A30000A000860FFE704980168086840F00100A8
:101A4000086009E0FFE70499002081F82000FFE723
:101A500002208DF80300FFE79DF803008DF81700C2
:101A6000FFE79DF8170006B080BD000080B582B08A
:101A70000190BDF8040004F0A5FF02B080BD000095
:101A800080B586B00490039101208DF80B000020F2
:101A90000190FFE740F2F040C2F20000007E012812
:101AA00004D1FFE702208DF817006AE040F2F04110
:101AB000C2F2000101200876FFE7FFE70498006802
:101AC000022819D1FFE74CF25030FFF757F990B9CF
:101AD000FFE70120FFF780F84CF25030FFF74EF996
:101AE0008DF80B0042F21001C4F20201086820F0E8
:101AF00004000860FFE737E04CF25030FFF73EF992
:101B000088BBFFE703994FF0FF30086004988068B6
:101B10000190FFE70198049A9168D26801EB822155
:101B200088421FD2FFE70198FFF76CF84CF2503063
:101B3000FFF724F98DF80B0042F21001C4F2020104
:101B4000086820F0020008609DF80B0020B1FFE754
:101B500001980399086005E0FFE7019800F58060AF
:101B60000190D7E7FFE7FFE7FFE740F2F041C2F25D
:101B7000000100200876FFE79DF80B008DF81700A4
:101B8000FFE79DF8170006B080BD000042F210018B
:101B9000C4F20201086840F080000860002070472D
:101BA00080B588B0069005910393029201208DF8CC
:101BB000070000208DF806008DF80500FFE740F2D1
:101BC000F040C2F20000007E012804D1FFE70220AD
:101BD0008DF81F0076E040F2F041C2F200010120D2
:101BE0000876FFE7FFE74CF25030FFF7C7F88DF8B3
:101BF00007009DF80700002857D1FFE70698012845
:101C000004D1FFE701208DF805000CE006980228BA
:101C100004D1FFE702208DF8050003E004208DF8D1
:101C20000500FFE7FFE700208DF80600FFE79DF8BD
:101C300006009DF80510884236DAFFE705989DF802
:101C400006C000EB4C000299039A4FEA0C1E2023B9
:101C5000A3EB0C1302FA03F321FA0EF119436FF010
:101C60001F0303EB0C13DA40002B58BF114689B257
:101C7000FEF7E4FF4CF25030FFF780F88DF80700D4
:101C800042F21001C4F20201086820F0010008606D
:101C90009DF8070008B1FFE706E0FFE79DF80600A2
:101CA00001308DF80600C2E7FFE7FFE740F2F041A0
:101CB000C2F2000100200876FFE79DF807008DF8CA
:101CC0001F00FFE79DF81F0008B080BD81B0002015
:101CD0008DF8030042F21000C4F202000068000612
:101CE00000281CD5FFE742F20401C4F2020140F2D1
:101CF0002310C4F26750086048F6AB10CCF6EF50E2
:101D0000086042F21000C4F20200006800060028D9
:101D100004D5FFE701208DF80300FFE7FFE79DF8FA
:101D2000030001B07047000080B58CB0ADF82E0004
:101D3000052004F047FEBDF82E0004284CD1FFE733
:101D400040F60040C4F20100042100F0D5FA00285A
:101D500042D1FFE740F2EC40C2F200000078E8B95F
:101D6000FFE740F20B00C2F2000001780131017080
:101D7000027840F68C10C2F200000A9048F20D0181
:101D8000C0F6000105F09AF80A9A69460120086039
:101D900018200021102302F02DFE1CE040F20C0060
:101DA000C2F20000017801310170027840F68C1017
:101DB000C2F20000099048F20D01C0F6000105F0E2
:101DC0007DF8099A694601200860582000211023F7
:101DD00002F010FEFFE7D9E0BDF82E0020284CD11C
:101DE000FFE740F60040C4F20100202100F084FA31
:101DF000002842D1FFE740F2EC40C2F20000007838
:101E0000E8B9FFE740F20B00C2F2000001780139A7
:101E10000170027840F68C10C2F20000089048F27F
:101E20000D01C0F6000105F049F8089A6946012045
:101E3000086018200021102302F0DCFD1CE040F2B5
:101E40000C00C2F20000017801390170027840F6FE
:101E50008C10C2F20000079048F20D01C0F600019C
:101E600005F02CF8079A69460120086058200021E7
:101E7000102302F0BFFDFFE787E0BDF82E00082821
:101E800013D1FFE740F60040C4F20100082100F042
:101E900033FA50B9FFE740F2EC41C2F20001087892
:101EA000013000F0010008706EE0BDF82E0010282F
:101EB00018D1FFE740F60040C4F20100102100F005
:101EC0001BFA78B9FFE7FEF7FDFF694601200860BD
:101ED00048F21802C0F6000200200221102302F08E
:101EE00089FD50E0BDF82E00B0F5807F4AD1FFE7B4
:101EF00040F60040C4F201004FF4807100F0FCF99C
:101F000000283FD1FFE7FEF7C5FF40F20B00C2F209
:101F10000000027840F68C10C2F20000039048F2F4
:101F20000D01C0F60001029104F0C8FF039A694652
:101F300001200490086018200021059110230693C9
:101F400002F058FD0299039840F20C02C2F200021E
:101F5000127804F0B3FF039A0599069B0498EC46A7
:101F6000CCF80000582002F045FD04990598069B26
:101F70006A46116048F21102C0F60002022102F026
:101F800039FDFFE7FFE7FFE7FFE7FFE7BDF82E00BA
:101F900040F21441C4F2010108600CB080BD0000A1
:101FA00080B582B0ADF8060040F21440C4F20100E2
:101FB0000068BDF8061008420CD0FFE7BDF8060027
:101FC00040F21441C4F201010860BDF80600FFF7B9
:101FD000ABFEFFE702B080BD90B00F900E910020E5
:101FE0000D900990FFE70E9800680D99C8400028F1
:101FF00000F07F81FFE70D99012088400C900E983A
:1020000000680C9908400B900B980C99884240F09E
:102010006C81FFE70E9840680590002851D0FFE7DB
:10202000059801283AD0FFE7059802283FD0FFE73E
:10203000059803285FD0FFE70598112832D0FFE705
:102040000598122838D0FFE705980021C1F2110148
:10205000884236D0FFE705980021C1F2120188427C
:102060002FD0FFE705980021C1F22101884228D036
:10207000FFE705980021C1F22201884221D0FFE745
:1020800005980021C1F2310188421AD0FFE7059876
:102090000021C1F23201884213D02FE00E98C068AF
:1020A00009902CE00E98C0680430099027E00E9843
:1020B000C0680830099022E00E98C0680C30099082
:1020C0001DE00E98806818B9FFE70420099011E020
:1020D0000E988068012806D1FFE7082009900C9827
:1020E0000F99086105E0082009900C980F99486144
:1020F000FFE7FFE703E00020099000E0FFE70B980F
:10210000FF2803D8FFE70F98049003E00F980430EE
:102110000490FFE7049808900B98FF2804D8FFE785
:102120000D988000039006E00D996FF01F0000EB02
:1021300081000390FFE70398079008980068079ACA
:102140000F219140884309999140084308990860FC
:102150000E98C079C006002840F1C680FFE7FFE76F
:1021600041F21800C4F20200016841F0010101606F
:10217000006800F0010006900698FFE70D9820F037
:1021800003000821C4F2010140580A900D9800F0A4
:10219000030081000F2000FA01F10A9888430A9099
:1021A0000F9840F60001C4F20101884203D1FFE715
:1021B0000020029026E00F9840F60041C4F2010191
:1021C000884203D1FFE70120019018E00F9841F207
:1021D0000001C4F20101884203D1FFE70220009010
:1021E0000AE00F9941F20042C4F201020420914238
:1021F00008BF03200090FFE700980190FFE70198D7
:102200000290FFE702980D9901F00301890000FA9E
:1022100001F10A9808430A900A980D9921F00301E8
:102220000822C4F2010288500E988079C006002866
:1022300009D5FFE70B9A40F20841C4F20101086892
:102240001043086008E00B9A40F20841C4F2010113
:10225000086890430860FFE70E98807980060028A0
:1022600009D5FFE70B9A40F20C41C4F2010108685E
:102270001043086008E00B9A40F20C41C4F20101DF
:10228000086890430860FFE70E988079800700286F
:1022900009D5FFE70B9A40F20441C4F20101086836
:1022A0001043086008E00B9A40F20441C4F20101B7
:1022B000086890430860FFE70E988079C00748B12E
:1022C000FFE70B9A40F20041C4F201010868104395
:1022D000086008E00B9A40F20041C4F2010108686E
:1022E00090430860FFE7FFE7FFE70D9801300D908E
:1022F00079E610B07047000082B00190ADF802108E
:1023000001988068BDF80210084204D0FFE7012060
:102310008DF8010003E000208DF80100FFE79DF833
:10232000010002B07047000082B00190ADF80210C9
:102330008DF801209DF8010028B1FFE7BDF80200EB
:102340000199086105E0BDF80200000401990861E7
:10235000FFE702B07047000040F69C10C2F2000098
:102360000068704740F21000C2F20000027840F6A8
:102370009C11C2F200010868104408607047000018
:1023800080B542F20001C4F20201086840F010007A
:102390000860032000F096F80F2000F005F800F028
:1023A0003BF8002080BD000080B582B0009040F274
:1023B0000400C2F20000006840F21001C2F2000105
:1023C0000A784FF47A71B1FBF2F1B0FBF1F001F051
:1023D0000DF920B1FFE701208DF8070018E0009803
:1023E0000F280DD8FFE700994FF0FF30002200F0D2
:1023F0004FF8009840F21401C2F20001086003E0B7
:1024000001208DF8070003E000208DF80700FFE7AA
:102410009DF8070002B080BD83B0FFE741F21800CD
:10242000C4F20200016841F001010160006800F09F
:10243000010002900298FFE7FFE741F21C00C4F29E
:102440000200016841F080510160006800F0805096
:1024500001900198FFE7FFE70421C4F20101086839
:102460000090009820F0E0600090009840F000702C
:10247000009000980860FFE703B0704780B582B015
:102480008DF807009DF9070002F0F6FF02B080BD4D
:1024900080B586B08DF81700049103920020029059
:1024A00003F002F802909DF9170001900298049938
:1024B000039A02F08DF80146019802F0FDFF06B084
:1024C00080BD000080B582B00190019803F016F83D
:1024D00002B080BD80B586B00490002003900290C9
:1024E00004980078C007002800F0AC80FFE70020C7
:1024F0008DF8070041F21C00C4F202000068C00021
:10250000002813D4FFE7FFE741F21C00C4F20200E9
:10251000016841F080510160006800F08050009037
:102520000098FFE701208DF80700FFE747F2000061
:10253000C4F200000068C005002822D4FFE747F27B
:102540000001C4F20001086840F480700860FFF7E1
:1025500003FF0390FFE747F20000C4F200000068A9
:10256000C00500280CD4FFE7FFF7F6FE0399401AD8
:10257000652804D3FFE703208DF817008AE0EAE717
:10258000FFE741F22000C4F20200006800F440704E
:1025900002900298E0B3FFE702980499496801F4B9
:1025A0004071884234D0FFE741F22001C4F20201B9
:1025B000086820F44070029040F24042C4F2422287
:1025C0000120106000201060029808609DF808004B
:1025D000C007E0B1FFE7FFF7BFFE0390FFE741F25E
:1025E0002000C4F202000068800700280ED4FFE734
:1025F000FFF7B2FE0399401A41F28931884204D3B1
:10260000FFE703208DF8170044E0E8E7FFE7FFE766
:1026100041F22001C4F20201086820F44070049ADB
:102620005268104308609DF80700012809D1FFE7B0
:1026300041F21C01C4F20201086820F080500860D9
:10264000FFE7FFE704980078800700280CD5FFE734
:1026500041F20401C4F20201086820F44040049AE7
:10266000926810430860FFE704980078C0060028CD
:102670000CD5FFE741F20401C4F20201086820F41E
:102680008000049AD26810430860FFE700208DF8AC
:102690001700FFE79DF8170006B080BD80B584B035
:1026A00002900191029820B9FFE701208DF80F00F8
:1026B0001BE1019842F20001C4F20201096801F035
:1026C0000701884216D9FFE742F20000C4F2020077
:1026D000016821F00701019A11430160006800F0D0
:1026E00007000199884204D0FFE701208DF80F0010
:1026F000FBE0FFE702980078800700282AD5FFE773
:10270000029800784007002809D5FFE741F204014C
:10271000C4F20201086840F4E0600860FFE7029834
:1027200000780007002809D5FFE741F20401C4F250
:102730000201086840F460500860FFE741F20401BC
:10274000C4F20201086820F0F000029A9268104377
:102750000860FFE702980078C007002860D0FFE714
:102760000298406801280ED1FFE741F20000C4F250
:10277000020000688003002804D4FFE701208DF8E0
:102780000F00B2E021E00298406802280ED1FFE776
:1027900041F20000C4F2020000688001002804D465
:1027A000FFE701208DF80F009FE00DE041F20000EF
:1027B000C4F2020000688007002804D4FFE701206B
:1027C0008DF80F0091E0FFE7FFE741F20401C4F24A
:1027D0000201086820F00300029A52681043086062
:1027E000FFF7BAFD0090FFE741F20400C4F20200D7
:1027F000006800F00C0002994968B0EB810F0ED020
:10280000FFE7FFF7A9FD0099401A41F2893188429C
:1028100004D3FFE703208DF80F0066E0E4E7FFE74D
:10282000019842F20001C4F20201096801F00701B7
:10283000884216D2FFE742F20000C4F202000168AB
:1028400021F00701019A11430160006800F00700C0
:102850000199884204D0FFE701208DF80F0044E081
:10286000FFE702980078400700280CD5FFE741F207
:102870000401C4F20201086820F4E060029AD26800
:1028800010430860FFE702980078000700280DD584
:10289000FFE741F20401C4F20201086820F460502D
:1028A000029A126940EAC2000860FFE700F04CF8A3
:1028B00041F20401C4F202010968C9B20A0947F2EF
:1028C000C071C0F60001895CC84040F20401C2F248
:1028D0000001086040F21400C2F200000068FFF737
:1028E00063FD00208DF80F00FFE79DF80F0004B096
:1028F00080BD000040F20400C2F200000068704792
:1029000080B5FFF7F7FF41F20401C4F20201096844
:10291000C1F3022247F2D071C0F60001895CC840C1
:1029200080BD000080B5FFF7E5FF41F20401C4F26D
:1029300002010968C1F3C22247F2D071C0F600015A
:10294000895CC84080BD000086B0002005900490DE
:1029500003900290019041F20400C4F2020000686A
:102960000590059800F00C000146009100283FD02A
:10297000FFE70098042804D0FFE70098082806D055
:1029800037E041F20020C0F27A00019037E005986C
:10299000C0F3834147F6F070C0F60000405C02903F
:1029A0009DF81600C007C0B1FFE741F20400C4F271
:1029B00002000068C0F3404148F20000C0F6000089
:1029C000405C0490029841F20021C0F27A01484331
:1029D0000499B0FBF1F0039007E0029840F6001173
:1029E000C0F23D0148430390FFE70398019006E0E1
:1029F000FFE741F20020C0F27A000190FFE7019862
:102A000006B0704780B586B00490049820B9FFE7FF
:102A100001208DF817002EE304980078C0070028E5
:102A200000F0AE80FFE741F20400C4F2020000684B
:102A300000F00C00042813D0FFE741F20400C4F2B8
:102A40000200006800F00C0008281BD1FFE741F2EB
:102A50000400C4F202000068C003002812D5FFE79A
:102A600041F20000C4F2020000688003002808D58B
:102A7000FFE70498406820B9FFE701208DF81700B0
:102A8000F9E27CE0FFE704984068B0F5803F09D1A7
:102A9000FFE741F20001C4F20201086840F480300F
:102AA000086032E00498406868B9FFE741F200012D
:102AB000C4F20201086820F480300860086820F43D
:102AC0008020086020E004984068B0F5A02F0DD168
:102AD000FFE741F20001C4F20201086840F48020DF
:102AE0000860086840F4803008600CE041F20001A2
:102AF000C4F20201086820F480300860086820F4FD
:102B000080200860FFE7FFE7FFE7FFE704984068E1
:102B1000D0B1FFE7FFF720FC0390FFE741F2000090
:102B2000C4F202000068800300280CD4FFE7FFF71E
:102B300013FC0399401A652804D3FFE703208DF89E
:102B4000170098E2EAE719E0FFF706FC0390FFE7B9
:102B500041F20000C4F202000068800300280CD596
:102B6000FFE7FFF7F9FB0399401A652804D3FFE755
:102B700003208DF817007EE2EAE7FFE7FFE7FFE7B3
:102B8000049800788007002840F18D80FFE741F22B
:102B90000400C4F20200006810F00C0F13D0FFE72D
:102BA00041F20400C4F20200006800F00C000828A2
:102BB00029D1FFE741F20400C4F202000068C0031B
:102BC000002820D4FFE741F20000C4F202000068B0
:102BD0008007002809D5FFE704980069012804D080
:102BE000FFE701208DF8170045E241F20001C4F231
:102BF0000201086820F0F800049A526940EAC20015
:102C00000860FFE74EE00498006958B3FFE7002131
:102C1000C4F2422101200860FFF79EFB0390FFE70A
:102C200041F20000C4F202000068800700280CD4C2
:102C3000FFE7FFF791FB0399401A032804D3FFE74E
:102C400003208DF8170016E2EAE741F20001C4F212
:102C50000201086820F0F800049A526940EAC200B4
:102C600008601EE00021C4F2422100200860FFF746
:102C700073FB0390FFE741F20000C4F2020000681A
:102C8000800700280CD5FFE7FFF766FB0399401A81
:102C9000032804D3FFE703208DF81700EBE1EAE7F0
:102CA000FFE7FFE7FFE7049800780007002848D512
:102CB000FFE70498806918B3FFE740F28041C4F24F
:102CC000422101200860FFF747FB0390FFE741F234
:102CD0002400C4F202000068800700280CD4FFE73B
:102CE000FFF73AFB0399401A032804D3FFE70320B8
:102CF0008DF81700BFE1EAE7012001F0D7FE1FE0E1
:102D000040F28041C4F2422100200860FFF724FB1A
:102D10000390FFE741F22400C4F20200006880073C
:102D200000280CD5FFE7FFF717FB0399401A03288B
:102D300004D3FFE703208DF817009CE1EAE7FFE7E3
:102D4000FFE7049800784007002840F1D880FFE7AB
:102D500000208DF8070041F21C00C4F20200006858
:102D6000C000002813D4FFE7FFE741F21C00C4F2C3
:102D70000200016841F080510160006800F080505D
:102D800000900098FFE701208DF80700FFE747F269
:102D90000000C4F200000068C005002822D4FFE74C
:102DA00047F20001C4F20001086840F48070086036
:102DB000FFF7D2FA0390FFE747F20000C4F20000E9
:102DC0000068C00500280CD4FFE7FFF7C5FA039997
:102DD000401A652804D3FFE703208DF817004AE165
:102DE000EAE7FFE7FFE70498C068012809D1FFE799
:102DF00041F22001C4F20201086840F001000860BD
:102E000031E00498C06868B9FFE741F22001C4F2DC
:102E10000201086820F001000860086820F0040042
:102E200008601FE00498C06805280DD1FFE741F253
:102E30002001C4F20201086840F00400086008683C
:102E400040F0010008600CE041F22001C4F20201F0
:102E5000086820F001000860086820F0040008609D
:102E6000FFE7FFE7FFE7FFE70498C068E0B1FFE78F
:102E7000FFF772FA0390FFE741F22000C4F202006C
:102E80000068800700280ED4FFE7FFF765FA039972
:102E9000401A41F28931884204D3FFE703208DF8BC
:102EA0001700E8E0E8E71BE0FFF756FA0390FFE7BA
:102EB00041F22000C4F202000068800700280ED50D
:102EC000FFE7FFF749FA0399401A41F28931884236
:102ED00004D3FFE703208DF81700CCE0E8E7FFE715
:102EE0009DF80700012809D1FFE741F21C01C4F257
:102EF0000201086820F080500860FFE7FFE70498AF
:102F0000C069002800F0B380FFE741F20400C4F27A
:102F10000200006800F00C00082800F08280FFE743
:102F20000498C06902285CD1FFE76021C4F2422105
:102F300000200860FFF710FA0390FFE741F200005D
:102F4000C4F202000068800100280CD5FFE7FFF7FB
:102F500003FA0399401A032804D3FFE703208DF8EE
:102F6000170088E0EAE70498006AB0F5803F0CD1CA
:102F7000FFE741F20401C4F20201086820F40030C6
:102F8000049A926810430860FFE741F20401C4F21A
:102F90000201086820F47410049B1A6A5B6A1A43E1
:102FA000104308606021C4F2422101200860FFF74D
:102FB000D3F90390FFE741F20000C4F20200006879
:102FC000800100280CD4FFE7FFF7C6F90399401AE7
:102FD000032804D3FFE703208DF817004BE0EAE74E
:102FE0001EE06021C4F2422100200860FFF7B4F91E
:102FF0000390FFE741F20000C4F202000068800184
:1030000000280CD5FFE7FFF7A7F90399401A03281A
:1030100004D3FFE703208DF817002CE0EAE7FFE771
:1030200024E00498C069012804D1FFE701208DF84D
:10303000170020E041F20400C4F202000068029090
:10304000029800F480300499096A884208D1FFE7A9
:10305000029800F470100499496A884204D0FFE78E
:1030600001208DF8170006E0FFE7FFE7FFE70020EB
:103070008DF81700FFE79DF8170006B080BD00002F
:1030800080B584B00290029820B9FFE701208DF846
:103090000F006EE00298406A60B9FFE7029840684E
:1030A000B0F5827F01D1FFE703E002990020C861FB
:1030B000FFE705E002990020086102994861FFE7F7
:1030C000029900208862029890F8510040B9FFE709
:1030D0000299002081F85000029800F04FF8FFE7B5
:1030E0000299022081F8510002980168086820F0D6
:1030F00040000860029A019211685068D2F808C036
:10310000D36800F482700CF4044C604403F4006350
:103110001844136903F002031844536903F00103D0
:103120001844936903F400731844D36903F0380317
:103130001844136A03F080031843926A02F40052A1
:1031400010430860029801688269042000EA124076
:10315000486002980168C86920F40060C86102995B
:1031600000204865029A012182F851108DF80F0065
:10317000FFE79DF80F0004B080BD000080B58AB065
:103180000990002008900790069005900998006823
:1031900043F60001C4F20001884239D1FFE7FFE79E
:1031A00041F21C00C4F20200016841F48041016058
:1031B000006800F4804004900498FFE7FFE741F2C4
:1031C0001800C4F20200016841F0080101600068C3
:1031D00000F0080003900398FFE74FF420400590AB
:1031E000022006900320089040F60040C4F201003F
:1031F000019005A90291FEF7EFFE019802994FF4A4
:1032000080420592002206920792FEF7E5FEFFE754
:103210000AB080BD80B58CB0DDF838C00A90099145
:103220000892ADF81E3001200390FFF795F8049046
:103230000A9890F851008DF817000A984068069097
:10324000BDF81E00ADF81C009DF81700012812D033
:10325000FFE70698B0F5827F09D1FFE70A988068FA
:1032600028B9FFE79DF81700042804D0FFE70220E3
:103270008DF82F009BE1099838B1FFE7089820B13D
:10328000FFE7BDF81E0020B9FFE701208DF82F00F1
:103290008DE1FFE70A9890F85000012804D1FFE77C
:1032A00002208DF82F0082E10A99012081F8500058
:1032B000FFE7FFE70A9890F85100042805D0FFE7E0
:1032C0000A99052081F85100FFE70A990020486516
:1032D00008990A9A9163BDF81E100A9AD187BDF821
:1032E0001E100A9A918709990A9A1163BDF81E1057
:1032F0000A9AD186BDF81E100A9A91860A99086426
:103300000A9948640A980068006800F04000402864
:1033100007D0FFE70A980168086840F0400008609D
:10332000FFE70A98C068B0F5006F40F08180FFE7C2
:103330000A98406828B1FFE7BDF81C0001280ED1AB
:10334000FFE70A980168006B0088C8600A99086B5B
:10335000023008630A99C88E0138C886FFE7FFE784
:103360000A98C18E0120019039B9FFE70A98C08FF1
:10337000002818BF01200190FFE70198C00700282E
:1033800055D0FFE70A98006880688007002818D5A4
:10339000FFE70A98C08EA0B1FFE70398012810D17B
:1033A000FFE70A980168006B0088C8600A99086BFB
:1033B000023008630A99C88E0138C886002003903D
:1033C000FFE70A9800688068C007A8B1FFE70A987D
:1033D000C08F88B1FFE70A980068C0680A99896BB6
:1033E00008800A99886B023088630A99C88F01386F
:1033F000C88701200390FFE7FEF7AEFF0499401A4B
:103400000E99884212D3FFE70E98013070B1FFE7A2
:103410000A99012081F85100FFE70A99002081F8FC
:103420005000FFE703208DF82F00C0E098E782E00E
:103430000A98406828B1FFE7BDF81C0001280ED1AA
:10344000FFE70A980168006B007808730A99086B17
:10345000013008630A99C88E0138C886FFE7FFE784
:103460000A98C18E0120009039B9FFE70A98C08FF1
:10347000002818BF01200090FFE70098C00700282F
:1034800058D0FFE70A98006880688007002818D5A0
:10349000FFE70A98C08EA0B1FFE70398012810D17A
:1034A000FFE70A980168006B007808730A99086BB7
:1034B000013008630A99C88E0138C886002003903D
:1034C000FFE70A9800688068C007A8B1FFE70A987C
:1034D000C08F88B1FFE70A980068C0680A99896BB5
:1034E00008700A99886B013088630A99C88F01387F
:1034F000C88701200390FFE7FEF72EFF0499401ACA
:103500000E99884204D3FFE70E98013018B9FFE7FF
:103510000E9870B9FFE70A99012081F85100FFE782
:103520000A99002081F85000FFE703208DF82F0052
:103530003DE095E7FFE70A980E99049A01F0D4FA66
:1035400068B1FFE70A9920204865FFE70A99002043
:1035500081F85000FFE701208DF82F0027E00A983E
:10356000806870B9FFE7FFE7002002900A980068C2
:10357000C06802900A980068806802900298FFE78D
:10358000FFE70A99012081F85100FFE70A9900201E
:1035900081F85000FFE70A98406D20B1FFE7012055
:1035A0008DF82F0003E000208DF82F00FFE79DF835
:1035B0002F000CB080BD000081B00090009804285E
:1035C00009D1FFE74EF21001CEF20001086840F089
:1035D0000400086008E04EF21001CEF20001086815
:1035E00020F004000860FFE701B0704780B582B0AA
:1035F0000190019801F046FB02B080BD85B00390B8
:103600000291FFE7039890F83C00012804D1FFE7FE
:1036100002208DF813005BE00399012081F83C0043
:10362000FFE7FFE70399022081F83D000398006857
:10363000406801900398006880680090019820F02D
:103640007000019002980168019808430190019868
:103650000399096848600398006842F60041C4F283
:103660000101884218D0FFE703980068B0F1804F4D
:1036700012D0FFE70398006840F20041C4F2000155
:10368000884209D0FFE70398006840F60001C4F2C1
:10369000000188420ED1FFE7009820F080000090E2
:1036A00002984168009808430090009803990968BF
:1036B0008860FFE70399012081F83D00FFE7039947
:1036C000002081F83C00FFE700208DF81300FFE7A1
:1036D0009DF8130005B0704780B582B00090009847
:1036E00020B9FFE701208DF807003FE0009890F82F
:1036F0003D0040B9FFE70099002081F83C000098A8
:1037000000F038F8FFE70099022081F83D000099A9
:1037100051F8040B01F02EFB0099012081F84600BE
:10372000FFE70099012081F83E00009981F83F00F1
:10373000009981F84000009981F84100FFE7FFE718
:103740000099012081F84200009981F84300009916
:1037500081F84400009981F84500FFE700990120B5
:1037600081F83D0000208DF80700FFE79DF8070075
:1037700002B080BD85B004900498006842F6004114
:10378000C4F20101884210D1FFE7FFE741F21800BF
:10379000C4F20200016841F400610160006800F4B5
:1037A000006003900398FFE74AE004980068B0F1D6
:1037B000804F10D1FFE7FFE741F21C00C4F2020086
:1037C000016841F001010160006800F00100029011
:1037D0000298FFE733E00498006840F20041C4F229
:1037E0000001884210D1FFE7FFE741F21C00C4F25C
:1037F0000200016841F002010160006800F002006F
:1038000001900198FFE719E00498006840F6000174
:10381000C4F20001884210D1FFE7FFE741F21C002B
:10382000C4F20200016841F004010160006800F088
:10383000040000900098FFE7FFE7FFE7FFE7FFE7DE
:1038400005B0704783B00190019890F83D000128C1
:1038500004D0FFE701208DF80B0041E00199022020
:1038600081F83D000198006842F60041C4F2010170
:10387000884218D0FFE701980068B0F1804F12D05D
:10388000FFE70198006840F20041C4F2000188425D
:1038900009D0FFE70198006840F60001C4F200017A
:1038A000884212D1FFE701980068806800F00700A5
:1038B00000900098062807D0FFE701980168086883
:1038C00040F001000860FFE706E001980168086821
:1038D00040F001000860FFE700208DF80B00FFE7D3
:1038E0009DF80B0003B0704780B586B0049003913B
:1038F00000208DF80B00FFE7049890F83C000128A9
:1039000004D1FFE702208DF81700ABE004990120F5
:1039100081F83C00FFE7FFE70499022081F83D00B1
:103920000498006880680190019820F07700019069
:10393000019820F47F4001900198049909688860FB
:10394000039800680090002872D0FFE700981028C4
:103950006ED0FFE7009820286AD0FFE70098302853
:1039600066D0FFE70098402855D0FFE70098502820
:1039700037D0FFE70098602840D0FFE70098702814
:103980000BD0FFE70098B0F5805F05D0FFE7009807
:10399000B0F5005F16D052E055E004980068039B34
:1039A0005A689968DB6801F069FA049800688068D1
:1039B0000190019840F077000190019804990968FE
:1039C000886040E004980068039B5A689968DB6847
:1039D00001F054FA04980168886840F480408860D7
:1039E00031E004980068039A5168D26801F002FC43
:1039F00004980068502101F05BFA24E00498006804
:103A0000039A5168D26801F01DFC04980068602197
:103A100001F04EFA17E004980068039A5168D268E2
:103A200001F0E8FB04980068402101F041FA0AE047
:103A3000049800680399096801F03AFA03E001204C
:103A40008DF80B00FFE70499012081F83D00FFE7A6
:103A50000499002081F83C00FFE79DF80B008DF8E9
:103A60001700FFE79DF8170006B080BD80B588B04D
:103A70000790002006900590049003900798006836
:103A8000B0F1804F32D1FFE7FFE741F21800C4F2F6
:103A90000200016841F004010160006800F00400C8
:103AA00002900298FFE74FF4004003900220049038
:103AB000069040F60000C4F2010003A9FEF78CFA5C
:103AC000FFE70421C4F2010108680190019820F485
:103AD00040700190019840F0E0600190019840F43E
:103AE0008070019001980860FFE726E00798006861
:103AF00040F60001C4F2000188421DD1FFE7FFE754
:103B000041F21800C4F20200016841F008010160AE
:103B1000006800F0080000900098FFE74FF4007084
:103B2000039002200490069040F60040C4F2010089
:103B300003A9FEF751FAFFE7FFE708B080BD0000D8
:103B400080B586B004900391029200208DF80700A2
:103B5000FFE7049890F83C00012804D1FFE7022019
:103B60008DF8170089E00499012081F83C00FFE7F7
:103B7000FFE7029800900C2800F270800099DFE8BF
:103B800001F0076D6D6D206D6D6D3A6D6D6D5300BB
:103B900004980068039901F0A1F904980168886904
:103BA00040F00800886104980168886920F00400EA
:103BB00088610398026904980168886910438861E4
:103BC00050E004980068039901F0F0F90498016846
:103BD000886940F40060886104980168886920F46D
:103BE000806088610398026904980168886940EAE6
:103BF0000220886136E004980068039901F042FAD7
:103C000004980168C86940F00800C8610498016818
:103C1000C86920F00400C86103980269049801682B
:103C2000C8691043C8611DE004980068039901F059
:103C300095FA04980168C86940F40060C861049866
:103C40000168C86920F48060C8610398026904981B
:103C50000168C86940EA0220C86103E001208DF8CC
:103C60000700FFE7FFE70499002081F83C00FFE729
:103C70009DF807008DF81700FFE79DF8170006B0C4
:103C800080BD000080B582B00090009820B9FFE7A9
:103C900001208DF807003FE0009890F83D0040B902
:103CA000FFE70099002081F83C00009800F038F808
:103CB000FFE70099022081F83D00009951F8040BBC
:103CC00001F058F80099012081F84600FFE70099BB
:103CD000012081F83E00009981F83F00009981F8A9
:103CE0004000009981F84100FFE7FFE700990120BB
:103CF00081F84200009981F84300009981F844005E
:103D0000009981F84500FFE70099012081F83D0006
:103D100000208DF80700FFE79DF8070002B080BD86
:103D200081B0009001B0704780B582B000900098DB
:103D300020B9FFE701208DF8070040E00098806976
:103D400008B1FFE700E0FFE7009890F8410040B9B4
:103D5000FFE70099002081F84000009800F034F857
:103D6000FFE70099242081F8410000980168C868A5
:103D700020F40050C860009801F08EFA00980168A5
:103D8000086920F49040086100980168486920F0B3
:103D90002A00486100980168C86840F40050C86073
:103DA000009900204864009A202182F84110009A6E
:103DB00082F84210009948638DF80700FFE79DF8EC
:103DC000070002B080BD000080B58AB009900020D5
:103DD00008900790069005900998006844F2004109
:103DE000C4F20001884237D1FFE7FFE741F21C002F
:103DF000C4F20200016841F400310160006800F47F
:103E0000003004900498FFE7FFE741F21800C4F285
:103E10000200016841F004010160006800F0040044
:103E200003900398FFE704200590022006900320EA
:103E3000089040F60000C4F20100019005A902912B
:103E4000FEF7CAF80198029908220592002206920C
:103E50000792FEF7C1F8FFE70AB080BDFFE7FEE773
:103E600080B586B01920059002F0DCFD40F60040D8
:103E7000C4F2010002904021039101220092FEF75A
:103E800053FA009A029880210191FEF74DFA0598A5
:103E900002F0C8FD0199029800220492FEF744FA4C
:103EA00002980399049AFEF73FFA059802F0BAFDCA
:103EB00006B080BD80B584B040F60040C4F2010079
:103EC0000090402101220292FEF72EFA1920039061
:103ED00002F0A8FD0098802101910022FEF724FA4B
:103EE000039802F09FFD00980199029AFEF71CFAD0
:103EF000039802F097FD04B080BD000080B588B043
:103F0000002006908DF81F0040F60040C4F201002A
:103F100004908021019101220292FEF705FA1920F6
:103F2000039002F07FFD01990498FEF7E5F9029AEB
:103F3000014604988DF81F1040210591FEF7F4F911
:103F4000039802F06FFD04980599069AFEF7ECF9C4
:103F50009DF81F0008B080BD80B584B0002103919A
:103F60000291019140F2B820C2F20000009042F2AA
:103F70000042C4F2010202604FF480728260017359
:103F800001754FF40022C261416008210161FDF713
:103F9000CDF818B1FFE7FCF717FEFFE7002001900E
:103FA00001200290039040F2B820C2F2000001A963
:103FB000FCF7D6FF18B1FFE7FCF706FEFFE701208C
:103FC00001900220029040F2B820C2F2000001A944
:103FD000FCF7C6FF18B1FFE7FCF7F6FDFFE704208A
:103FE00001900320029040F2B820C2F2000001A923
:103FF000FCF7B6FF18B1FFE7FCF7E6FDFFE7052089
:1040000001900420029040F2B820C2F2000001A901
:10401000FCF7A6FF18B1FFE7FCF7D6FDFFE7062087
:1040200001900520029040F2B820C2F2000001A9E0
:10403000FCF796FF18B1FFE7FCF7C6FDFFE7072086
:1040400001900620029040F2B820C2F2000001A9BF
:10405000FCF786FF18B1FFE7FCF7B6FDFFE7082085
:1040600001900720029040F2B820C2F2000001A99E
:10407000FCF776FF18B1FFE7FCF7A6FDFFE7092084
:1040800001900820029040F2B820C2F2000001A97D
:10409000FCF766FF18B1FFE7FCF796FDFFE704B0F9
:1040A00080BD000080B582B0FFE741F21400C4F289
:1040B0000200016841F001010160006800F00100A8
:1040C00001900198FFE70B20009000221146FEF7B7
:1040D000DFF90098FEF7D2F902B080BD80B596B046
:1040E00000201590149013901290FFE741F21800F1
:1040F000C4F20200016841F010010160006800F0A4
:10410000100011901198FFE7FFE741F21800C4F288
:104110000200016841F020010160006800F0200009
:1041200010901098FFE7FFE741F21800C4F2020078
:10413000016841F004010160006800F004000F9084
:104140000F98FFE7FFE741F21800C4F20200016890
:1041500041F008010160006800F008000E900E9820
:10416000FFE740F60040C4F2010007904FF4C05151
:10417000019100220C92FEF7D7F80C9A40F600004D
:10418000C4F2010003904FF470610291FEF7CCF885
:104190000798C021049101220592FEF7C5F80798FF
:1041A0000C994FF49E7212920022C1F221021392D6
:1041B000149112A90891FDF70FFF059A0798089925
:1041C0000C9B4FF4806CCDF848C013931492FDF70C
:1041D00003FF019B059A0798089912931392149272
:1041E000032206921592FDF7F7FEDDF808C003984A
:1041F000059B08990C9ACDF848C01393149202229B
:104200001592FDF7E9FEDDF810C0059B069A0798A8
:104210000899CDF848C04FF0110CCDF84CC014935C
:104220001592FDF7D9FE0C9A082009901146FEF769
:104230002FF90998FEF722F90C9A09200A901146E5
:10424000FEF726F90A98FEF719F90C9A0A200B9046
:104250001146FEF71DF90B98FEF710F90C9A17207E
:104260000D901146FEF714F90D98FEF707F916B0F8
:1042700080BD000080B582B040F22C30C2F2000058
:10428000009043F60001C4F2000101604FF4827116
:104290004160002101918160C160016141614FF481
:1042A00000728261C1610162416281620A21C16260
:1042B000FEF7E6FE18B1FFE7FCF786FCFFE702B069
:1042C00080BD000080B588B0002100910791069163
:1042D000059104910391029140F28430C2F20000F2
:1042E000019042F60042C4F2010202604FF6FF72F2
:1042F0004260816048F2FF62C26001614161816198
:10430000FFF7EAF918B1FFE7FCF75EFCFFE74FF4AF
:104310008050049040F28430C2F2000004A9FFF7FC
:10432000E3FA18B1FFE7FCF74FFCFFE7002002902B
:10433000039040F28430C2F2000002A9FFF75EF958
:1043400018B1FFE7FCF740FCFFE708B080BD0000B4
:1043500080B58EB0002100910D910C910B910A91C6
:104360000991089107910691059104910391029199
:10437000019140F2CC30C2F200004FF08042026066
:104380004722426081606322C26001618161FFF760
:10439000A3F918B1FFE7FCF717FCFFE74FF48050D3
:1043A0000A9040F2CC30C2F200000AA9FFF79CFA52
:1043B00018B1FFE7FCF708FCFFE740F2CC30C2F28F
:1043C0000000FFF75FFC18B1FFE7FCF7FDFBFFE71C
:1043D00000200890099040F2CC30C2F2000008A9F9
:1043E000FFF70CF918B1FFE7FCF7EEFBFFE76020E1
:1043F00001903220029000220392059240F2CC30CC
:10440000C2F2000001A9FFF79BFB18B1FFE7FCF720
:10441000DBFBFFE740F2CC30C2F20000FFF726FBE7
:104420000EB080BD80B588B0002101910791069142
:10443000059104910391029140F21440C2F20000F0
:1044400040F20042C4F2000202604FF6FF72426086
:10445000816040F63F32C26001618161FFF73CF943
:1044600018B1FFE7FCF7B0FBFFE74FF48050049072
:1044700040F21440C2F2000004A9FFF735FA18B167
:10448000FFE7FCF7A1FBFFE720200290002003904C
:1044900040F21440C2F2000002A9FFF7AFF818B1D1
:1044A000FFE7FCF791FBFFE708B080BD80B58EB059
:1044B000002100910D910C910B910A9109910891A5
:1044C000079106910591049103910291019140F2A7
:1044D0005C40C2F2000040F60002C4F2000202603A
:1044E0004722426081606322C26001618161FFF7FF
:1044F000F3F818B1FFE7FCF767FBFFE74FF48050D4
:104500000A9040F25C40C2F200000AA9FFF7ECF901
:1045100018B1FFE7FCF758FBFFE740F25C40C2F23E
:104520000000FFF7AFFB18B1FFE7FCF74DFBFFE71B
:1045300000200890099040F25C40C2F2000008A9F7
:10454000FFF75CF818B1FFE7FCF73EFBFFE76020E0
:1045500001903220029000200390059040F25C40D0
:10456000C2F2000001A90C22FFF7EAFA18B1FFE736
:10457000FCF72AFBFFE740F25C40C2F20000FFF7C5
:1045800075FA0EB080BD000080B582B040F2A44044
:10459000C2F20000019044F20041C4F20001016047
:1045A0004FF4E131416000218160C16001610C2262
:1045B00042618161C161FFF7B7FB18B1FFE7FCF70A
:1045C00003FBFFE702B080BDFFE7FEE7FFE7FEE782
:1045D00088B0079006910592079800F007000490B4
:1045E0000498C0F10700052803D3FFE704200190D9
:1045F00004E00498C0F107000190FFE701980390E0
:1046000004980430062803D8FFE70020009003E058
:10461000049803380090FFE70098029006980399E9
:10462000012202FA01F101390840029B98400599E4
:104630009A40013A1140084308B0704780B582B0F3
:1046400000208DF80700FFE79DF8070007282ADC07
:10465000FFE79DF80700B0300021009100F010FA4C
:104660000099084600F00CFA0099102000F008FAB2
:1046700000988DF80600FFE79DF806007F280BDC08
:10468000FFE70020012100F0FBF9FFE79DF806009D
:1046900001308DF80600EFE7FFE79DF807000130D5
:1046A0008DF80700D0E702B080BD000080B582B071
:1046B000AE200021019100F0E3F90199402000F0C3
:1046C000DFF90199B02000F0DBF90199C82000F072
:1046D000D7F90199812000F0D3F90199FF2000F06A
:1046E000CFF90199A12000F0CBF90199A62000F0A3
:1046F000C7F90199A82000F0C3F901991F2000F023
:10470000BFF90199D32000F0BBF90199084600F0E8
:10471000B7F90199D52000F0B3F90199F02000F024
:10472000AFF90199D92000F0ABF90199222000F0EE
:10473000A7F90199DA2000F0A3F90199022000F00D
:104740009FF90199DB2000F09BF90199492000F0C5
:1047500097F901998D2000F093F90199142000F048
:104760008FF90199AF2000F08BF9FFF767FF02B0D6
:1047700080BD000080B582B08DF807008DF806106E
:104780009DF80600B0300021009100F079F9009901
:104790009DF807000009103000F072F900999DF8AB
:1047A000070000F00F0000F06BF902B080BD0000C0
:1047B00080B582B0844604988DF807C08DF8061045
:1047C0008DF805208DF804308DF8030000208DF859
:1047D00002008DF801009DF8050020388DF80200D8
:1047E0009DF80700802809DBFFE700208DF807000F
:1047F0009DF8060002308DF80600FFE79DF80300E3
:10480000002876D1FFE79DF8040010284BD1FFE780
:104810009DF807009DF80610FFF7ACFF00208DF80B
:104820000100FFE79DF80100072815DCFFE79DF870
:1048300002109DF8010000EB011147F60020C0F6C0
:104840000000405C012100F01BF9FFE79DF801002A
:1048500001308DF80100E5E79DF807009DF806108E
:104860000131C9B2FFF786FF00208DF80100FFE794
:104870009DF80100072815DCFFE79DF802109DF860
:10488000010000EB011147F60020C0F60000405C7B
:10489000012100F0F5F8FFE79DF8010001308DF8E7
:1048A0000100E5E724E09DF807009DF80610FFF7FA
:1048B00061FF00208DF80100FFE79DF80100052849
:1048C00015DCFFE79DF802109DF8010000EB0111D7
:1048D00047F60020C0F60000405C012100F0D0F84F
:1048E000FFE79DF8010001308DF80100E5E7FFE7E3
:1048F000FFE79DF80300002879D0FFE79DF804004A
:1049000010284CD1FFE79DF807009DF80610FFF72F
:1049100031FF00208DF80100FFE79DF80100072816
:1049200015DCFFE79DF802109DF8010000EB011176
:1049300047F60020C0F60000405C012100F0A0F81E
:10494000FFE79DF8010001308DF80100E5E79DF8D3
:1049500007009DF806100131C9B2FFF70BFF0020D8
:104960008DF80100FFE79DF80100072816DCFFE73E
:104970009DF802109DF8010000EB011047F60021A0
:10498000C0F600010844007A012100F079F8FFE741
:104990009DF8010001308DF80100E4E726E09DF864
:1049A00007009DF80610FFF7E5FE00208DF80100D6
:1049B000FFE79DF80100052817DCFFE79DF80200DE
:1049C00000EB400147F2D870C0F6000000EB410058
:1049D0009DF80110405C012100F052F8FFE79DF8BE
:1049E000010001308DF80100E3E7FFE7FFE702B0C7
:1049F00080BD000080B584B0844606988DF80FC055
:104A00008DF80E1002928DF807308DF80600002008
:104A10008DF80500FFE702989DF80510405C68B32B
:104A2000FFE79DF80F009DF80E10029A9DF80530E3
:104A3000D25C9DF807309DF806C0EE46CEF800C067
:104A4000FFF7B6FE9DF807109DF80F0000EB510030
:104A50008DF80F009DF80F00792809DBFFE7002093
:104A60008DF80F009DF80E0002308DF80E00FFE764
:104A70009DF8050001308DF80500CCE704B080BD3D
:104A800080B582B001900091009828B1FFE79DF8B1
:104A9000040000F0D7FC04E09DF8040000F0B8FC2E
:104AA000FFE702B080BD00007047000082B00190B7
:104AB000019840F20401C2F200010968C90844F6F5
:104AC000D352C1F26202A1FB02218909484300903E
:104AD000FFE700BFFFE70098411E00910028F8D1D2
:104AE000FFE702B07047000080B586B004900391E4
:104AF00002920498039B02996A46116002210122E6
:104B000000F028F848B1FFE70499486D40F0200014
:104B1000486503208DF8170017E00498039B02995D
:104B20006A4611608021002200F014F848B1FFE7C6
:104B30000499486D40F02000486503208DF8170067
:104B400003E000208DF81700FFE79DF8170006B07E
:104B500080BD000080B58AB0DDF830C008900791B4
:104B60008DF81B20059305980190FDF7F5FB024693
:104B700001980C99891A08440390FDF7EDFB029007
:104B8000039840F20401C2F200010968C1F3CB317D
:104B900048430490FFE70898006880680799084038
:104BA000401AB0FA80F040099DF81B1088425ED090
:104BB000FFE705980130002858D0FFE7FDF7CCFB50
:104BC0000299401A0399884204D2FFE7039800280B
:104BD00042D1FFE708980168486820F0E00048608B
:104BE00008984068B0F5827F13D1FFE70898806885
:104BF000B0F5004F06D0FFE708988068B0F5806FE9
:104C000007D1FFE708980168086820F040000860B5
:104C1000FFE70898806AB0F5005F0FD1FFE7FFE774
:104C200008980168086820F4005008600898016836
:104C3000086840F400500860FFE7FFE7089901208A
:104C400081F85100FFE70899002081F85000FFE744
:104C500003208DF827000EE0049818B9FFE7002024
:104C60000390FFE7049801380490FFE793E70020E2
:104C70008DF82700FFE79DF827000AB080BD0000EF
:104C80007047000080B582B0009000980138B0F104
:104C9000807F03D3FFE70120019019E000980138DD
:104CA0004EF21401CEF2000108604FF0FF300F21E8
:104CB00000F002FC4EF21801CEF200010020086064
:104CC0004EF21002CEF20002072111600190FFE7C0
:104CD000019802B080BD000080B5FDF743FB80BDA8
:104CE00080B596B00CA801902821FBF734FA019802
:104CF000002302930B930A93099308930793069357
:104D000005930493039301220C924FF480310D918B
:104D10000E9310920222139214914FF4E011159108
:104D2000FDF770FE18B1FFE7FBF74EFFFFE70F201E
:104D3000079002210891002009904FF480620A92A6
:104D40000B9007A8FDF7AAFC18B1FFE7FBF73CFFA3
:104D5000FFE7022003904FF40040059003A8FDF701
:104D6000B9FB18B1FFE7FBF72FFFFFE716B080BDD7
:104D70007047000083B00290019102980068009093
:104D8000029842F60041C4F20101884215D0FFE7C3
:104D90000298B0F1804F10D0FFE7029840F2004136
:104DA000C4F20001884208D0FFE7029840F60001F3
:104DB000C4F2000188420AD1FFE7009820F0700099
:104DC000009001984168009808430090FFE702981E
:104DD00042F60041C4F20101884215D0FFE7029873
:104DE000B0F1804F10D0FFE7029840F20041C4F2CA
:104DF0000001884208D0FFE7029840F60001C4F2A3
:104E0000000188420AD1FFE7009820F4407000902A
:104E10000198C168009808430090FFE7009820F0CF
:104E20008000019949690843009000980299086040
:104E3000019880680299C8620198006802998862A6
:104E4000029842F60041C4F20101884205D1FFE711
:104E50000198006902990863FFE7029901204861FF
:104E600002980069C00730B1FFE70299086920F095
:104E700001000861FFE703B07047000085B00490AF
:104E8000039102920193049880680090009820F4A6
:104E90007F40009003980299019A41EA0221014360
:104EA00000980843009000980499886005B0704706
:104EB00083B002900191029880680090009820F0E1
:104EC0007000009001980099084340F0070000909E
:104ED00000980299886003B07047000085B0049084
:104EE00003910498006A01900499086A20F0010077
:104EF00008620498406800900498806902900298C3
:104F000020F070000290029820F0030002900398B5
:104F10000168029808430290019820F00200019075
:104F200003988168019808430190049842F6004173
:104F3000C4F2010188420ED1FFE7019820F0080079
:104F400001900398C168019808430190019820F0EE
:104F500004000190FFE7049842F60041C4F2010109
:104F6000884213D1FFE7009820F4807000900098E9
:104F700020F4007000900398416900980843009065
:104F800003988169009808430090FFE7009804990E
:104F900048600298049988610398406804994863BE
:104FA00001980499086205B07047000085B004902C
:104FB00003910498006A01900499086A20F0100097
:104FC00008620498406800900498806902900298F2
:104FD00020F4E0400290029820F440700290039880
:104FE0000168029840EA01200290019820F0200018
:104FF000019003988168019840EA0110019004989B
:1050000042F60041C4F2010188420FD1FFE7019846
:1050100020F0800001900398C168019840EA0110D7
:105020000190019820F040000190FFE7049842F6BB
:105030000041C4F20101884215D1FFE7009820F435
:1050400080600090009820F400600090039841690F
:10505000009840EA8100009003988169009840EA36
:1050600081000090FFE70098049948600298049935
:1050700088610398406804998863019804990862DC
:1050800005B0704785B0049003910498006A0190C0
:105090000499086A20F480700862049840680090BF
:1050A0000498C0690290029820F070000290029863
:1050B00020F00300029003980168029808430290D0
:1050C000019820F40070019003988168019840EAEB
:1050D00001200190049842F60041C4F20101884287
:1050E0000FD1FFE7019820F4006001900398C16898
:1050F000019840EA01200190019820F4806001901D
:10510000FFE7049842F60041C4F20101884215D13C
:10511000FFE7009820F480500090009820F40050A1
:10512000009003984169009840EA011000900398AC
:105130008169009840EA01100090FFE70098049907
:10514000486002980499C861039840680499C8634C
:1051500001980499086205B07047000085B004907A
:1051600003910498006A01900499086A20F4805021
:1051700008620498406800900498C0690290029800
:1051800020F4E0400290029820F4407002900398CE
:105190000168029840EA01200290019820F4005032
:1051A000019003988168019840EA013001900498C9
:1051B00042F60041C4F2010188420BD1FFE700989A
:1051C00020F48040009003984169009840EA8110E3
:1051D0000090FFE700980499486002980499C8611C
:1051E000039840680499086401980499086205B01E
:1051F0007047000085B00490039102920498006A01
:1052000000900499086A20F00100086204988069FF
:105210000190019820F0F00001900299019840EA75
:1052200001100190009820F00A0000900399009866
:1052300008430090019804998861009804990862D5
:1052400005B0704785B00490039102920498006AFB
:1052500000900499086A20F01000086204988069A0
:105260000190019820F4704001900299019840EA61
:1052700001300190009820F0A00000900399009860
:1052800040EA0110009001980499886100980499FF
:10529000086205B07047000080B584B003900398A1
:1052A0000068006920F44050039A1168D2681043E6
:1052B0000861039988680A694969104308430290A4
:1052C00003980068C06841F20C6188430299084362
:1052D00003990968C86003980068406920F4407029
:1052E000039A11689269104348610398006843F675
:1052F0000001C4F20101884204D1FFE7FDF712FB6F
:10530000019003E0FDF7FCFA0190FFE701981921F5
:105310004843039A116852689200B0FBF2FC48F2CD
:105320001F52C5F2EB12ACFB02304309642003FBB1
:1053300010CC322000EB0C10A0FB0202F02000EA9F
:10534000521000EB0310C2F343121044886004B003
:1053500080BD0000FFE7FEE780B586B08DF817003E
:105360009DF817008DF8150040F60040C4F20100CA
:10537000402100220492FCF7D7FF04988DF8140016
:10538000FFE79DF8140007283FDCFFE79DF81500B4
:1053900000F080008DF816009DF81600802809D1D5
:1053A000FFE740F60040C4F2010080210122FCF733
:1053B000BBFF08E040F60040C4F20100802100225B
:1053C000FCF7B2FFFFE79DF8150040008DF81500CF
:1053D0001920019001F026FB40F60040C4F20100C4
:1053E0000290402103910122FCF79EFF019801F0F9
:1053F00019FB029803990022FCF796FFFFE79DF83E
:10540000140001308DF81400BBE706B080BD000029
:1054100080B582B08DF80700FEF722FD7820FFF7F7
:105420009BFFFEF76BFD0020FFF796FFFEF766FD82
:105430009DF80700FFF790FFFEF760FDFEF73AFDCD
:1054400002B080BD80B582B08DF80700FEF708FD80
:105450007820FFF781FFFEF751FD4020FFF77CFF2A
:10546000FEF74CFD9DF80700FFF776FFFEF746FDBF
:10547000FEF720FD02B080BD81B08DF803009DF9DC
:10548000030000280ED4FFE79DF9031001F01F026E
:10549000012090404A094EF20011CEF2000141F87D
:1054A0002200FFE701B070474EF60C50CEF200002C
:1054B0000068C0F30220704782B08DF807000091A9
:1054C0009DF9070000280AD4FFE7009800019DF924
:1054D00007104EF20042CEF2000288540BE0009812
:1054E00000019DF8071001F00F014EF61452CEF2A4
:1054F00000028854FFE702B07047000083B00290BA
:10550000029800F0070000904EF60C51CEF2000118
:105510000868019001984FF6FF0210400190019831
:10552000009A40EA02200022C0F2FA521043019091
:105530000198086003B0704780B582B08DF807000D
:10554000062001F0EDF99DF8070001F0FBF901F0EC
:10555000CDF98DF8060001F09FF99DF8060002B024
:1055600080BD000080B582B08DF8060000208DF867
:1055700004003D2001F0D4F99DF8060001F0E2F9A5
:1055800001F08AF9FFE7052001F01CFA00F05AF853
:105590008DF805009DF80500102808D1FFE79DF85B
:1055A0000400411C8DF80410C92801DBFFE700E06E
:1055B000E9E79DF8050020B1FFE701208DF807001D
:1055C00003E000208DF80700FFE79DF8070002B018
:1055D00080BD000080B582B08DF8060000208DF8F7
:1055E0000400412001F09CF99DF8060001F0AAF9A1
:1055F00001F052F9FFE7052001F0E4F900F022F88C
:105600008DF805009DF80500102808D1FFE79DF8EA
:105610000400411C8DF80410C92801DBFFE700E0FD
:10562000E9E79DF8050020B1FFE701208DF80700AC
:1056300003E000208DF80700FFE79DF8070002B0A7
:1056400080BD000080B582B02C2001F069F901F026
:105650004DF98DF8070001F01FF99DF8070002B021
:1056600080BD000080B582B0422001F059F901F000
:105670003DF98DF8060001F00FF99DF8060020B104
:10568000FFE701208DF8070003E000208DF80700F8
:10569000FFE79DF8070002B080BD000080B582B032
:1056A000192001F03DF9022001F0BCF901F01EF9CA
:1056B000ADF8060001F01AF90146BDF8060040EA0F
:1056C0000120ADF8060001F0E7F8BDF8060002B0D1
:1056D00080BD000080B582B0012001F021F901F009
:1056E00005F98DF8070001F0D7F89DF8070002B022
:1056F00080BD000080B582B08DF80700302001F039
:105700000FF99DF8070001F01DF9022001F08AF958
:1057100001F0ECF88DF8060001F0BEF89DF80600E7
:1057200002B080BD80B584B0DDF818C0039002914E
:1057300001920093432001F0F3F801F0D7F80399A8
:10574000087001F0D3F80399487001F0CFF803997D
:10575000887001F0CBF80399C87001F0C7F802997E
:10576000087001F0C3F80299487001F0BFF802997F
:10577000887001F0BBF80299C87001F0B7F8019980
:10578000087001F0B3F80199487001F0AFF8019981
:10579000887001F0ABF80199C87001F0A7F8009982
:1057A000087001F0A3F80099487001F09FF8009983
:1057B000887001F09BF80099C87001F097F806997D
:1057C000087001F093F80699487001F08FF8069977
:1057D000887001F08BF80699C87001F05DF804B08C
:1057E00080BD000080B582B0262001F099F801F05C
:1057F0007DF88DF8070001F04FF89DF8070002B022
:1058000080BD000080B582B08DF807003B2001F01C
:1058100087F89DF8070001F095F801F067F8ADF8FA
:10582000040001F063F80146BDF8040040EA0120DD
:10583000ADF8040001F030F8BDF8040002B080BDFE
:1058400080B584B08DF80F00029101922D2001F0F7
:1058500067F89DF80F0001F075F801F047F802991C
:10586000087001F043F80299487001F03FF802997E
:10587000887001F03BF80299C87001F037F801997F
:10588000088001F033F802460199088840EA0220B6
:10589000088001F001F804B080BD000080B582B03E
:1058A00000208DF80500272001F03AF800F0F4FF01
:1058B000FFE70A2001F086F8FFF7C4FE8DF8060026
:1058C0009DF80600102808D1FFE79DF80500411C4F
:1058D0008DF80510C92801DBFFE700E0E9E79DF836
:1058E000060020B1FFE701208DF8070003E000204B
:1058F0008DF80700FFE79DF8070002B080BD0000AB
:1059000080B582B08DF8060000208DF804003520A7
:1059100001F006F89DF8060001F014F800F0BCFF55
:10592000FFE7052001F04EF8FFF78CFE8DF805002B
:105930009DF80500102808D1FFE79DF80400411CE0
:105940008DF80410C92801DBFFE700E0E9E79DF8C6
:10595000050020B1FFE701208DF8070003E00020DB
:105960008DF80700FFE79DF8070002B080BD00003A
:1059700080B584B08DF80F00ADF80C100292BDF820
:105980000C0008B9FFE72CE03C2000F0C9FF9DF8AF
:105990000F0000F0D7FF9DF80C0000F0D3FF9DF83A
:1059A0000D0000F0CFFF012001F03CF80020ADF821
:1059B0000600FFE7BDF80600BDF80C1088420DDABE
:1059C000FFE700F093FF0299BDF806208854FFE737
:1059D000BDF806000130ADF80600EBE700F05CFF13
:1059E000FFE704B080BD000080B5052000F098FFFF
:1059F00000F052FF80BD000080B582B08DF8070036
:105A0000ADF80410322000F08BFF9DF8070000F085
:105A100099FF9DF8040000F095FF9DF8050000F047
:105A200091FF00F039FF02B080BD000080B582B068
:105A30000190232000F074FF00208DF80300FFE7A1
:105A40009DF8030003280DDCFFE701989DF8031083
:105A5000405C00F077FFFFE79DF8030001308DF810
:105A60000300EDE700F018FF02B080BD80B582B002
:105A70000190222000F054FF00208DF80300FFE782
:105A80009DF8030003280DDCFFE701989DF8031043
:105A9000405C00F057FFFFE79DF8030001308DF8F0
:105AA0000300EDE700F0F8FE02B080BD80B582B0E3
:105AB0008DF807000091312000F032FF9DF80700BB
:105AC00000F040FF0098007800F03CFF009840781C
:105AD00000F038FF0098807800F034FF0098C0781C
